:10000000A6C00000BFC00000BDC00000BBC0000013
:10001000B9C00000B7C00000B5C00000B3C0000008
:10002000B1C00000AFC00000ADC00000C0C40000FF
:10003000A9C00000A7C00000A5C00000A3C0000028
:10004000A1C000009FC000009DC000009BC0000038
:1000500099C0000097C0000095C0000015C20000C4
:1000600091C000008FC000008DC000008BC0000058
:1000700089C00000240350004F004B004B00450096
:100080004E00200043004F004E00540052004F002D
:100090004C004C004500520000001C0348004F007B
:1000A00052004900200043004F002E002C004C005D
:1000B000540044002E000000040309040902290032
:1000C00001010080FA090400000203000000092178
:1000D0001101000122560007050203400005070533
:1000E000810340000512010002000000400D0F9244
:1000F0000000010102000105010905A1011500250B
:100100000135004501750195100509190129108176
:100110000205012507463B0175049501651409395F
:10012000814265009501810126FF0046FF000930EC
:100130000931093209357508950481020600FF0965
:1001400020950181020A212695089102C000112400
:100150001FBECFEFD2E0DEBFCDBF11E0A0E0B1E027
:10016000E2EFFDE002C005900D92A031B107D9F792
:1001700021E0A0E1B1E001C01D92A43AB207E1F78D
:1001800071D135C63DCFCF93DF9300D0CDB7DEB769
:100190009FB7F894809196019FBF898382E191E097
:1001A00021E039814FEF430F4983332309F4BFC066
:1001B000E0919401F09195014191F0939501E093C4
:1001C0009401E259F14021F49093950180939401B8
:1001D0005FB7F894309196013150309396015FBF2C
:1001E0004A83E091110131E03E0F30931101E33079
:1001F00009F465C020F5E13009F441C008F051C0B0
:10020000E0911001E227F0E04A8150E063E0EE0F58
:10021000FF1F6A95E1F7E050FF4F51834083E09163
:100220001001E227F0E073E0EE0FFF1F7A95E1F78F
:10023000E050FF4F40815181542F44272FC0E530BB
:1002400009F459C008F449C0E63009F462C0E73047
:1002500009F0A7CFE0911001E227F0E03A8143E0F6
:10026000EE0FFF1F4A95E1F7E050FF4F37833091C3
:1002700010013227309310011092110192CF3A8170
:1002800040911001E427F0E043E0EE0FFF1F4A9594
:10029000E1F7E050FF4F40815181432B5183408370
:1002A00080CFE0911001E227F0E03A81B3E0EE0F59
:1002B000FF1FBA95E1F7E050FF4F328372CFE09114
:1002C0001001E227F0E03A81A3E0EE0FFF1FAA95AC
:1002D000E1F7E050FF4F338364CFE0911001E22754
:1002E000F0E03A8173E0EE0FFF1F7A95E1F7E050FE
:1002F000FF4F348356CFE0911001E227F0E03A81BE
:1003000063E0EE0FFF1F6A95E1F7E050FF4F358382
:1003100048CFE0911001E227F0E03A8153E0EE0F80
:10032000FF1F5A95E1F7E050FF4F36833ACF0F9009
:100330000F90DF91CF91089584B7877F84BF0FB668
:10034000F894A89580916000886180936000109275
:1003500060000FBE90E080E80FB6F89480936100D3
:10036000909361000FBE87E690E09093CD0080935C
:10037000CC0086E08093CA001092C800E9ECF0E05F
:1003800088E18083539A5A9A80818068808300C371
:100390000895089542E360EC82E03AD242E361ECD2
:1003A00081E036C20895CF93DF93EC01ECDEE0915B
:1003B0001001F0E083E0EE0FFF1F8A95E1F7E050B7
:1003C000FF4F88E0DE0101900D928A95E1F7DF9101
:1003D000CF910895CF93DF93CDB7DEB728970FB6AF
:1003E000F894DEBF0FBECDBF80919B01843089F5AC
:1003F00082E08093E9008091E80082FF12C0809142
:10040000E80085FF09C040E050E067E070E0CE0101
:100410000196F9D08111F7CF8091E8008B77809316
:10042000E80081E08093E9008091E80080FF11C03E
:10043000CE010196B8DF40E050E068E070E0CE0108
:10044000019697D08111F7CF8091E8008E77809345
:10045000E80028960FB6F894DEBF0FBECDBFDF913F
:10046000CF91089569DF2FB7F89482E191E09093DE
:1004700093018093920190939501809394012FBFF3
:100480007894A8DF9AD4FDCF1F920F920FB60F92E7
:1004900011242F938F939F93EF93FF938091CE001E
:1004A000E0919201F09193018083E0919201F091AB
:1004B0009301CF0101969093930180939201825909
:1004C000914021F482E191E0928381839FB7F89477
:1004D000809196018F5F809396019FBFFF91EF916E
:1004E0009F918F912F910F900FBE0F901F90189595
:1004F000292F332723303105E1F058F4213031051D
:1005000099F02230310569F589E290E02CEB30E07A
:100510002CC02132310501F12232310511F586E579
:1005200090E027EF30E021C082E190E025EE30E05E
:100530001CC099278130910549F028F0029789F471
:10054000E4E7F0E005C0E8EBF0E002C0EAE9F0E043
:10055000849190E09F0109C089E090E02EEC30E0AA
:1005600004C080E090E020E030E0FA013183208395
:100570000895CF92DF92EF92FF920F931F93CF9344
:10058000DF93EC018B017A0197D1811133C0E11423
:10059000F10439F0F70180819181081B190BC80F14
:1005A000D91FC12CD12C0115110519F18091E8003A
:1005B00085FD16C08091E8008E778093E800FDD31A
:1005C000E114F10449F0F70180819181C80ED91E30
:1005D000D182C08285E00EC06FD1882321F30AC08A
:1005E00089918093F10001501109FFEFCF1ADF0AC2
:1005F000DACF80E0DF91CF911F910F91FF90EF90C4
:10060000DF90CF900895CF92DF92EF92FF920F93F9
:100610001F93CF93DF93EC018B017A014DD18111B0
:1006200033C0E114F10439F0F70180819181081B96
:10063000190BC80FD91FC12CD12C0115110519F1A7
:100640008091E80085FD16C08091E8008B7780934B
:10065000E800B3D3E114F10449F0F70180819181FE
:10066000C80ED91ED182C08285E00EC025D1882354
:1006700021F30AC08091F100899301501109FFEF25
:10068000CF1ADF0ADACF80E0DF91CF911F910F916F
:10069000FF90EF90DF90CF9008952091A2013091CC
:1006A000A3012617370748F06115710539F4209129
:1006B000E8002E772093E80001C0B901FC0120E09A
:1006C0006115710569F180919B018823E1F1853005
:1006D000E1F18091E80083FD3AC08091E80082FD5D
:1006E0002CC08091E80080FFEBCF8091F20090E079
:1006F0006115710551F08034910538F421912093F2
:10070000F100615071090196F3CF21E08034910529
:1007100009F020E08091E8008E778093E800D0CF48
:100720002111D1CF0AC080919B01882361F08530CF
:1007300061F08091E80083FD0AC08091E80082FFAB
:10074000F2CF80E0089582E0089583E0089581E08B
:1007500008952091A2013091A3012617370748F090
:100760006115710539F42091E8002E772093E80097
:1007700001C0B901FC0120E06115710581F1809192
:100780009B01882309F43EC0853009F43DC0809167
:10079000E80083FD3BC08091E80082FD2DC0809180
:1007A000E80080FFE9CF8091F20090E061157105CB
:1007B00059F08034910540F424912093F100319652
:1007C000615071090196F2CF21E08034910509F062
:1007D00020E08091E8008E778093E800CDCF211152
:1007E000CECF0AC080919B01882361F0853061F0F3
:1007F0008091E80083FD0AC08091E80082FFF2CF7B
:1008000080E0089582E0089583E0089581E00895EE
:10081000982F953068F59093E900981739F070910A
:10082000EC002091ED005091F00003C0242F762FB2
:1008300050E021FD02C09F5FECCF3091EB003E7F86
:100840003093EB003091ED003D7F3093ED0030911F
:10085000EB0031603093EB007093EC002093ED00DF
:100860005093F0002091EE0027FDE5CF80E0089541
:100870008F708093E90081E0089580919C0187FF4B
:1008800011C08091E80082FD05C080919B0181111B
:10089000F8CF11C08091E8008B770BC080919B014D
:1008A000882349F08091E80080FFF8CF8091E8002C
:1008B0008E778093E80008952091E4003091E50060
:1008C00095E64091EC00842F817040FF23C0809119
:1008D000E80080FD1DC080919B01882399F0853040
:1008E00099F08091EB0085FD11C04091E40050919A
:1008F000E5002417350729F3915011F09A01E1CF53
:1009000084E0089582E0089583E0089581E00895E9
:1009100080E008954091E80042FFDDCF089541D086
:1009200043D08091D8008F778093D8008091D800F1
:1009300080688093D8008091D8008F7D8093D80004
:1009400084E089BD86E089BD09B400FEFDCF109228
:100950009B0110929701109299011092980142E325
:1009600060E080E055DF8091E1008E7F8093E100C0
:100970008091E20081608093E2008091E2008860D3
:100980008093E2008091E0008E7F8093E0000895E4
:10099000E3E6F0E080818E7F808381E080939A019E
:1009A000BECF1092E20008951092E10008951F92C8
:1009B0000F920FB60F9211242F933F934F935F9393
:1009C0006F937F938F939F93AF93BF93EF93FF9317
:1009D0008091E10082FF0AC08091E20082FF06C0A0
:1009E0008091E1008B7F8093E100E6D18091E1006E
:1009F00080FF17C08091E20080FF13C08091E20069
:100A00008E7F8093E2008091E20080618093E2001B
:100A10008091D80080628093D80019BC10929B010D
:100A2000B8DC8091E10084FF2FC08091E20084FF58
:100A30002BC084E089BD86E089BD09B400FEFDCFEE
:100A40008091D8008F7D8093D8008091E1008F7EC7
:100A50008093E1008091E2008F7E8093E20080919C
:100A6000E20081608093E20080919701882311F079
:100A700084E007C08091E30087FD02C081E001C0EF
:100A800083E080939B0184DC8091E10083FF22C09E
:100A90008091E20083FF1EC08091E100877F8093F8
:100AA000E10082E080939B01109297018091E10028
:100AB0008E7F8093E1008091E2008E7F8093E20040
:100AC0008091E20080618093E20042E360E080E098
:100AD0009FDE72D1FF91EF91BF91AF919F918F9166
:100AE0007F916F915F914F913F912F910F900FBE2A
:100AF0000F901F9018951F93CF93DF93CDB7DEB75C
:100B0000AA970FB6F894DEBF0FBECDBFECE9F1E0B7
:100B10008091F100819321E0E43AF207C9F742DCC9
:100B20008091E80083FF30C180919C0190919D01EC
:100B3000953009F483C030F49130A9F168F0933016
:100B400091F122C1983009F4EFC0993009F4FBC04B
:100B5000963009F019C194C0803821F0823809F02C
:100B600013C108C08091980190919901992389F04F
:100B700082600FC08091A0018F70853008F004C1A1
:100B80008093E9008091EB0085FB882780F9109223
:100B9000E9009091E800977F9093E8008093F1003E
:100BA0001092F100CCC0282F2D7F09F0EDC08823D2
:100BB00019F0823061F0E8C080919E01813009F027
:100BC000E3C0933009F080E0809399012EC08091BA
:100BD0009E0181112AC08091A0018F702FEF280FF4
:100BE000243008F0D1C08093E9002091EB0020FF71
:100BF0001CC0933021F48091EB00806214C090916E
:100C0000EB0090619093EB0021E030E0A90102C07D
:100C1000440F551F8A95E2F74093EA001092EA00CC
:100C20008091EB0088608093EB001092E900809146
:100C3000E800877F8093E80020DEA6C08111A4C071
:100C400010919E011F778091E3008078812B809323
:100C5000E3008091E800877F8093E8000EDE8091BA
:100C6000E80080FFFCCF8091E30080688093E30080
:100C7000111102C082E001C083E080939B0184C017
:100C80008058823008F080C080919E0190919F0131
:100C90008C3D53E0950771F583E08A838AE289836E
:100CA0004FB7F894DE01139620E03EE051E2E32FC7
:100CB000F0E050935700E49120FF03C0E295EF70FD
:100CC0003F5FEF708E2F90E0EA3010F0C79601C0C2
:100CD000C0968D939D932F5F243149F74FBF80912C
:100CE000E800877F8093E8006AE270E0CE01019619
:100CF000D4DC14C06091A0017091A101AE014F5FDE
:100D00005F4FF6DBBC01892B09F43EC09091E800EF
:100D1000977F9093E80089819A811BDD8091E8009C
:100D20008B778093E80030C0803871F58091E800BF
:100D3000877F8093E800809197018093F1008091F4
:100D4000E8008E7777CF81111FC080919E0190912E
:100D50009F0199270297C4F48091E800877F8093D0
:100D6000E80080919E018093970187DD8091970133
:100D7000811106C08091E30087FD02C081E001C0BF
:100D800084E080939B0106DB8091E80083FF0AC02A
:100D90008091E800877F8093E8008091EB0080627B
:100DA0008093EB00AA960FB6F894DEBF0FBECDBFBE
:100DB000DF91CF911F9108950895CF9380919B016A
:100DC000882399F0C091E900CF709091EC00892FB1
:100DD000817090FD80E8C82B1092E9008091E800B6
:100DE00083FD89DECF70C093E900CF910895F89418
:020DF000FFCF33
:100DF20000000880808080000000088080808000E1
:00000001FF
